:100000000C945D010C94071D0C947A010C947A01F8
:100010000C947A010C947A010C947A010C947A0174
:100020000C947A010C947A010C94A7220C947A23F4
:100030000C94B11B0C947A010C947A010C947A0103
:100040000C947A010C947A010C947A010C947A0144
:100050000C947A010C94291C0C947A010C947A016A
:100060000C947A010C947A010C947A010C947A0124
:100070000C947A010C947A010C947A010C947A0114
:100080000C947A010C947A010C947A010C947A0104
:100090000C947A010C947A010C947A010C947A01F4
:1000A0000C947A010C947A010C947A010601C774BD
:1000B000C974CB74CD74D1741901C874CA74CC746A
:1000C000CE74D274000000000000C174CF74D074EC
:1000D000D674DA74DC74DE74E074E274D774DB74A2
:1000E000DD74DF74E174E974D874D974C2740000EB
:1000F000000000002C0350006500720065006700DE
:10010000720069006E0065002000530070006C00F2
:100110006900740020005300740065006E006F00D9
:1001200000000E0343006F007200690065006E005E
:1001300000000403090409027800040100A0FA0980
:100140000400000103010100092111010001224402
:1001500000070581030800010904010001030000F4
:100160000009211101000122B600070582032000C9
:1001700001080B020202020100090402000102024E
:1001800001000524001001042402020524060203D4
:10019000070583030800FF09040300020A000000AA
:1001A000070505021000050705840210000512016D
:1001B0000002EF020108EDFE606001000102000193
:1001C00005010902A10185020901A1000509190122
:1001D00029081500250195087501810205010930DE
:1001E00009311581257F9502750881060938158129
:1001F000257F950175088106050C0A3802158125B1
:100200007F950175088106C0C005010980A101859F
:100210000319012AB700150126B700950175108151
:1002200000C0050C0901A101850419012AA00215CD
:100230000126A002950175108100C005010906A1E3
:10024000018506050719E029E715002501950875C0
:100250000181020507190029EF1500250195F075A8
:10026000018102050819012905950575019102957D
:100270000175039101C005010906A101050719E0F7
:1002800029E715002501950875018102950175087A
:1002900081010507190029FF150026FF0095067545
:1002A0000881000508190129051500250195057526
:1002B000019102950175039101C011241FBECFEF7A
:1002C000DAE0DEBFCDBF11E0A0E0B1E0E0EEFFE498
:1002D00002C005900D92A43DB107D9F723E0A4ED2B
:1002E000B1E001C01D92A830B207E1F70E944A14A4
:1002F0000C949C270C940000811112C0663080F48D
:10030000463070F4E42FF0E086E0689FE00DF11DC8
:100310001124EE0FFF1FE455FF4F8591949108952E
:1003200081E090E008950E947C01089581E00895A5
:1003300081E008950E949601089581E0089581E08A
:10034000089581E008950E94A101089508950895F7
:100350000E94A601089508950895A6E0B0E0E3EB99
:10036000F1E00C94F82649835A839E833091DB0197
:1003700089819A8131111AC03E81311599F0211578
:1003800089F00E940808182F682F89819A810E949D
:10039000E40769817A81812F0E94180F2696E3E095
:1003A0000C9414270E94F607182FF3CF0E94080818
:1003B00069817A81F1CFFC01262F408151816281D0
:1003C0007381848195810E94AD010895CF93DF935D
:1003D000D82FC92F61E00E94DB016D2F7C2F0E9476
:1003E0009801811549F061E08D2F9C2F0E94DB015F
:1003F0006D2F7C2F0E949A01DF91CF9108950F936A
:100400001F93CF93DF93D82FC92F60E00E94DB01A9
:100410008C016D2F7C2F0E94A7016D2F7C2FC801AE
:100420000E94A801DF91CF911F910F91089521E0C3
:1004300030E0A90102C0440F551F8A95E2F7CA01B6
:100440000E9406070895CF93C82F81E090E00C2EFC
:1004500002C0880F991F0A94E2F70E94650C8C2F46
:100460000E941702CF91089581E0089581E00895D8
:100470000E9434020895CF93C82F0E94B0068C2F9B
:100480000E9436028C2F0E9438022FEF84E39CE0FA
:10049000215080409040E1F700C00000CF910895C6
:1004A00081E00E943B020E944D1C089580E00E9462
:1004B0003B020E945E1C08950F931F93CF93DF931E
:1004C0008C0161E00E94DB01EC01B8010E949F01F8
:1004D000811509F449C0B801CE010E94A30181151C
:1004E00009F442C0B801CE010E949F148115E1F1C8
:1004F000B801CE010E940A198115B1F1B801CE01EF
:100500000E945F15811581F1B801CE010E9434155A
:10051000811551F1B801CE010E946310811521F1BE
:10052000F8018581811581F0CA35FCE7DF0739F1D3
:1005300078F4C130ECE7DE07F9F0C330FCE7DF0701
:10054000C9F0C115DC4771F0C8010E949D010DC0C2
:10055000CB35ECE7DE07B1F0CC35DC47A9F70E94DC
:10056000370CF2CF0E94500280E0DF91CF911F91B3
:100570000F9108950E94480C0E945602F5CF0E94E8
:10058000400CE2CF0E94440CDFCF0E94AB010E94DE
:10059000731B0E94E90208950E94ED020E94AC01C3
:1005A0000E94781B089581E008950895CF93DF930A
:1005B000D82F0E94D302C82F811519F08D2F0E94C9
:1005C000D5028C2FDF91CF91089508950E94D60215
:1005D000089580E00E94E60208950E9451190E9449
:1005E000E6020895CF930E945119C82F8091D60139
:1005F0008C1779F0C093D6010E941D1C6093D7011F
:100600007093D8018093D9019093DA018C2F0E94C6
:10061000E602CF910895ADE0B0E0E1E1F3E00C94A3
:10062000F926488759876A877B878C879D87911130
:100630000E94430B1F8286E0FE013896DE01119670
:1006400001900D928A95E1F78D8181110DC029816C
:100650003A814B815C816D817E818F810E948D0A00
:100660002D96E2E00C941527CE0101960E94E6013A
:100670008111EDCFF5CFFC018481813021F480819F
:1006800091810E943A080895611529F00E94C516CB
:100690000E94861708950E940E17FACFCF93C82F95
:1006A0008115C9F08238C9F40E94651981FD13C013
:1006B00089E30E948E1A0E94D90B2FEF37EE83E058
:1006C000215030408040E1F700C0000089E30E94E3
:1006D000A81A0E94D90BCF9108958338A1F40E94E3
:1006E000651980FDF8CF83E50E948E1A0E94D90B10
:1006F0009FEF21EE34E0915020403040E1F700C000
:10070000000083E5E4CF8438A1F40E94651982FDDE
:10071000E2CF87E40E948E1A0E94D90B8FEF91EEF0
:1007200024E0815090402040E1F700C0000087E4C1
:10073000CECF8CEF8C0F813A70F48C2F0E94FF1972
:10074000811529F08C2F0E94A81A0E94D90B8C2F9A
:100750000E948E1ABECF80E28C0F883048F4C7709A
:1007600081E001C0880FCA95EAF70E94240BB1CF3F
:100770008BE58C0F833038F42C2F2452330BC901B6
:100780000E949119A8CFE8E5EC0FEB3150F4F0E0AE
:10079000EE0FFF1FE15AFE4F808191810E94B71931
:1007A0009ACF83E38C0F833108F095CF61E08C2FD3
:1007B0000E94440390CF811509F456C0823879F421
:1007C0000E94651981FF50C089E30E948E1A0E9421
:1007D000D90B89E30E94A81A0E94D90B0895833887
:1007E00059F40E94651980FF3FC083E50E948E1A6C
:1007F0000E94D90B83E5EECF843859F40E94651925
:1008000082FF32C087E40E948E1A0E94D90B87E4CF
:10081000E1CF9CEF980F913AE8F290E2980F983070
:1008200050F4877091E001C0990F8A95EAF7892FFB
:100830000E942A0BD1CF9BE5980F933028F480E0DB
:1008400090E00E949119089598E5980F9B3128F443
:1008500080E090E00E94B719089593E3980F9331D8
:1008600018F460E00E94440308950F931F93CF9300
:10087000C82F8B010E944E030115110539F48C2FEE
:100880000E94DB03CF911F910F9108958FE99FE0A4
:100890000197F1F700C0000001501109EDCF60E5AC
:1008A00070E0893311F060E070E00E943504089533
:1008B000811521F00E94240B0E94D90B0895811507
:1008C00021F00E942A0B0E94D90B0895A0E0B0E00D
:1008D000ECE6F4E00C94F3266C01D62FC72FFC0154
:1008E0001581068102950F700E94190BE82E811563
:1008F000F9F0E12E1115E1F08C2F807F803461F04A
:1009000080E28D0F8830F0F08C2F807E803221F4D1
:10091000D230C0F00115B1F08091E40282FF12C024
:1009200082E00E940A0C0E94190B91E0E82EE92651
:10093000EC2FE295EF70C03CB0F5F0E0E256F84DD8
:100940000C94E326E12CF4CF0C2F0F70C03110F083
:100950000295007F111599F0011559F080E28D0F75
:10096000883010F0D11107C0802F0E94240B0E9404
:10097000D90B8D2F4EC0802F0E94350BF8CF8D2FB5
:100980000E94DB03011579F080E28D0F883010F0B2
:10099000D11104C0802F0E942A0B03C0802F0E9417
:1009A0003B0B0E94D90BE11409F4CBC00E94150B3C
:1009B00080FDC7C0F60115820E940F0B0E944207FE
:1009C000C6010E9477060E940F0B0E945207B9C011
:1009D000FC2FFF70FF2EC07FC03219F0F29480EF21
:1009E000F822D11541F0D130C9F1111509F443C0F5
:1009F0000115E9F0BECF8091E40282FD14C011150B
:100A000059F0F11429F08F2D0E94240B0E94D90B6C
:100A100080E00E944E03C7CF80E00E94DB03F11408
:100A200011F28F2DB8CF111569F0011104C08F2D6F
:100A30000E945804B8CF013009F0B5CF8F2D0E9425
:100A40005B0BB1CF0111AFCF8F2D0E945F048F2DB3
:100A50000E94670B8F2D0E944A0BA5CF111521F024
:100A6000063008F0A0CFE3CF053008F09CCF8F2DE3
:100A70000E945F0498CF0115D1F3D93349F42FEFC9
:100A800087EE93E0215080409040E1F700C00000E5
:100A90008D2F0E94DB0387CF8C2F869586958370E0
:100AA000811569F0813009F07ECF8D2F9C2F9370D6
:100AB000111102C080E090E00E94B71974CF8D2F11
:100AC0009C2F9370111102C080E090E00E94911958
:100AD0006ACF612F8D2F0E94440365CF8C2F8370C6
:100AE00081113DC0111129C04D2F42954695477087
:100AF000440F440F2D2F2F7030E0042E02C0220F20
:100B0000331F0A94E2F780E090E0D4FF09C08FE041
:100B100090E002C0880F991F4A95E2F78095909562
:100B2000C695C695C370822B932BC23091F0C3300B
:100B300099F0C13059F00E9412070E9451190E9489
:100B4000E602CDB7DEB7E8E00C940F270E94090754
:100B5000F4CF0E941B07F1CF0E940607EECF1115BC
:100B600061F1C0FFEACF4D2F429546954770440F83
:100B7000440F2D2F2F7030E0042E02C0220F331FA0
:100B80000A94E2F780E090E0D4FF09C08FE090E0A3
:100B900002C0880F991F4A95E2F780959095C695F7
:100BA000C695C370822B932BC23071F0C33079F09D
:100BB000C13039F00E947D07C0CF823008F4BDCF2C
:100BC000D2CF0E947407B9CF0E948607B6CF0E9489
:100BD0002A07B3CFCF70111539F08C2F0E9442072E
:100BE0008D2F0E945804A9CF8D2F0E945F048C2F57
:100BF0000E945207A2CFD23F41F170F4D03FC9F01A
:100C0000D13F91F0111509F446C0011509F440C017
:100C10008D2F0E944E0391CFD33FF1F0D43F91F737
:100C20008091E40282FD22C08C2F8F71111501F397
:100C300010C0111541F0053008F07FCF8C2F8F7157
:100C40000E9464077ACF0630F7CF8C2F8F71111175
:100C5000CFCF0E94420771CF111529F08C2F8F71D1
:100C60000E9436076ACF0E94310767CF111531F015
:100C700063E08C2F8F710E94EB0B5FCF81E00E94AD
:100C80000A0C023008F459CF82E00E940A0C55CFBA
:100C90008C2F8F71DECF011579F0D93349F4EFEF46
:100CA000F7EE23E0E150F0402040E1F700C0000003
:100CB0008D2F0E94DB0341CF8C2F8F7199CF0F9323
:100CC0001F93CF93DF93EC01688179818D810E941E
:100CD00047088C010E948F070E940507B801CE01CA
:100CE0000E946604DF91CF911F910F910895CF93D9
:100CF000DF93EC018C81811599F0CE010E945C029A
:100D0000811111C00E94190B811551F08D8181153F
:100D100039F08091E40282FF03C082E00E940A0C55
:100D2000DF91CF910895CE010E945F06CE010E940F
:100D3000FF01F6CF80E090E00E94911980E090E002
:100D40000E94B7190E94430B0E94D90B0E94A3175F
:100D50000E94861708950E94C21A0E949A0608955A
:100D60000E94320B0E94AB060895282F92959F7027
:100D7000963099F060F4925F9F70923030F4203F8B
:100D8000B1F038F481E0283E38F080E008959A5FB1
:100D9000F3CF81E0243FC9F7089591E0813F09F046
:100DA00090E081E0283E08F080E0892B089581E002
:100DB0000895FC018481811539F0808191810E9420
:100DC0003A080E94B506089580E00895A6E0B0E0D4
:100DD000ECEEF6E00C94F9262696E2E00C9415274A
:100DE000A7E0B0E0E6EFF6E00C94F9262796E2E003
:100DF0000C94152708950E94FA0608950E94FB0698
:100E00009093F3018093F201089508950E94FE06E5
:100E100008952091F2013091F301822B932B0E94CF
:100E2000FE0608952091F2013091F301822393236D
:100E30000E94FE0608952091F2013091F30182276D
:100E400093270E94FE0608950E94FA0608950E94C4
:100E5000240708950E9427079093F1018093F001E1
:100E6000089580E090E00E942A07089521E030E094
:100E7000A90102C0440F551F8A95E2F7CA010E94DA
:100E80002A07089521E030E002C0220F331F8A951F
:100E9000E2F78091F0019091F101822B932B0E9457
:100EA0002A07089521E030E002C0220F331F8A95FF
:100EB000E2F7209530958091F0019091F101822325
:100EC00093230E942A07089521E030E002C0220FF8
:100ED000331F8A95E2F78091F0019091F10182270A
:100EE00093270E942A0708952091F0013091F10183
:100EF000822B932B0E942A0708952091F0013091B4
:100F0000F101822393230E942A0708952091F00182
:100F10003091F101822793270E942A0708950895AE
:100F20009B01677091E001C0990F6A95EAF763E051
:100F3000369527956A95E1F7220F331F220F331F4D
:100F4000FA01E20FF31F40E050E0682F70E081915A
:100F5000DF019B01042E02C0369527950A94E2F723
:100F6000217021952827292328272E934F5F5F4F33
:100F70004430510561F708959C01982F977083E0E4
:100F8000369527958A95E1F7220F331F220F331FDD
:100F9000FB01E20FF31F40E050E080E0219130E0E0
:100FA000092E02C0369527950A94E2F7217033275F
:100FB000042E01C0220F0A94EAF7822B4F5F5F4F85
:100FC0004430510559F70895282F862F963068F43C
:100FD000263058F4622F70E026E0929F600D711D5C
:100FE00011244CED51E00E9490070895292F96306E
:100FF00068F4863058F490E06CED71E036E0239FA1
:10100000800D911D11240E94BC07089580E0089571
:10101000A0E0B0E0EEE0F8E00C94F2268C01E09065
:10102000F001F090F1018091F2019091F301E82A32
:10103000F92ACFE0D0E0CC24C394D12CC6010C2EE9
:1010400002C0880F991F0A94E2F78E219F21892BF5
:1010500049F4219798F7B12C8B2DCDB7DEB7E9E095
:101060000C940E27BC2EB8018C2F0E94240F0197E0
:1010700081F3F2CFCF93DF93D82FC92F0E940808B6
:101080006D2F7C2F0E94240FDF91CF9108951F9325
:10109000CF93DF93162FD72F9091DB01911541F05D
:1010A000862F972F0E943A08DF91CF911F910895C4
:1010B000811581F0862F972F0E940808C82F682F6E
:1010C000812F9D2F0E94E407612F7D2F8C2F0E947E
:1010D000240FEACF862F972F0E94F607C82FF4CF50
:1010E0000F931F93CF93E091F401C7E08091F50136
:1010F0008E1304C0CF911F910F9108950E2F10E011
:10110000CE9FF0011124EA50FE4F208131814281AF
:1011100053816481758186810E94F006F8013196C1
:10112000E770E4CF20912E0230912F0240913002DF
:1011300050913102609132027091330280913402F9
:101140000E94F006089580913402803178F48091F5
:101150003302811559F0E091F4012091F5013091AD
:101160002F0240912E0257E02E1301C008956E2FDA
:1011700070E05E9FF0011124DF01AA50BE4F14966B
:101180008C911497811561F111968C9111978313AD
:1011900027C08C91841324C015968C9115978111CA
:1011A0001FC012968D919C91A0913002B091310296
:1011B0008A1B9B0B883C910598F4809134028F70B8
:1011C000806180933402E450FE4F80818F70806193
:1011D00080838EE292E00E9477060E947008089554
:1011E000FB013196E770C0CFE091F4019091F501D9
:1011F00027E0E91302C080E00895AE2FB0E02E9FF3
:10120000F0011124EA50FE4F3181361306C03081BF
:10121000381303C03581341304C0FD013196E770E3
:10122000E8CF81E008958F929F92AF92BF92DF92B4
:10123000EF92FF920F931F93CF93DF93CDB7DEB75B
:101240002D970FB6F894DEBF0FBECDBF8C0186E0A0
:10125000F801DE01189601900D928A95E1F7F801E8
:10126000F58084819EE2892E92E0992E909132023F
:1012700091111BC0811509F4FFC0F11409F440C19C
:10128000C8010E94D906811509F43AC187E0F80126
:10129000D40101900D928A95E1F7C4010E943B03AD
:1012A0000E94A3080E949208E7C0E080A280B38059
:1012B000D09033022091300230913102A501421BBF
:1012C000530BD11409F4DBC0483C510508F0A6C00B
:1012D000811509F4D1C090912F0291808091340240
:1012E000803108F06BC0991228C090912E029E1197
:1012F00024C0F1105DC08F708061809334020E9421
:1013000092088EE292E00E94770680913402F80102
:101310008683F12C8F2D2D960FB6F894DEBF0FBE6D
:10132000CDBFDF91CF911F910F91FF90EF90DF9094
:10133000BF90AF909F908F900895F11039C040E01A
:10134000692D8E2D0E94F40840E0692D8E2D0E949B
:10135000F408F82E8111DDCF888599850E943A081E
:10136000292F22952F70903450F49F70223080F0F6
:10137000911599F0F8019681903178F4CBCF2A5FDE
:101380002F70223078F0C8010E947706FD2CC2CF62
:10139000911519F0811509F4BDCF805E883008F4ED
:1013A000B9CFF1CF803F08F4B5CF815F8330F7CF5D
:1013B00080913402816080933402ABCF991207C0D0
:1013C00090912E029E1103C0F11409F479C0C80156
:1013D0000E94D906811509F493C0F11409F490C054
:1013E00080913402803288F020912E0230912F02B9
:1013F0003A832983BC82AB82909132029D831E8204
:101400008F83CE0101960E94770687E0F801AEE255
:10141000B2E001900D928A95E1F742CF90913402AB
:101420009031A0F4488559856A857B858C859D859A
:101430000E94E6068EE292E00E94770687E0F401C1
:1014400011928A95E9F70E94920863CF8115A1F065
:1014500020912F0281812813BACF80912E028E1104
:10146000B6CFF110B4CF9683C8010E94770687E00B
:10147000F40111928A95E9F7FF24F3944BCF483C8D
:10148000510508F041C08115B9F3F114C9F19091EB
:101490002F02818198132AC080912E028E1126C0BE
:1014A0008091340280FD19C08031B8F08683807F3E
:1014B000803F39F08681982F907F905F8F70892BC5
:1014C0008683C8010E94770687E0F801AEE2B2E0A9
:1014D00001900D928A95E1F7E5CE87E0F801AEE242
:1014E000B2E001900D928A95E1F7C6CFC8010E9443
:1014F000D90681118ACF80913402816080933402B1
:10150000C8010E947706B8CF488559856A857B85D2
:101510008C859D850E94E60691CFAEE0B0E0E3E9C0
:10152000FAE00C94F826288739874A875B876C870E
:101530007D878E87CE0108960E9413096C858115E0
:10154000A9F0611541F0288539854A855B857D853F
:101550008E850E94F00617E08091F4019091F501CC
:1015600089133AC02E96E3E00C94142787E0FE011D
:101570003896DE01119601900D928A95E1F761157A
:1015800051F3A091F5018A2F90E001968770992779
:101590002091F4012817190689F097E09A9FD0014D
:1015A0001124AA50BE4FFE01319601900D929A95DA
:1015B000E1F78093F5010E947008CDCF0E94B0063C
:1015C0001092F5011092F40187E0EEE2F2E0DF0103
:1015D0001D928A95E9F7BFCF189FC00111248A5048
:1015E0009E4F0E941309811509F4BCCFE091F401CC
:1015F0001E9FF0011124EA50FE4F2081318142816B
:1016000053816481758186810E94F0068091F40186
:1016100090E00196877099278093F4019DCF809187
:101620005D02869586958695089580915D02877006
:10163000089590915D02977081E0911101C080E062
:10164000089580918902089590918902982B909332
:1016500089020895982F909580918902892380931B
:101660008902089510928902089590918802982B1A
:10167000909388020895982F9095809188028923ED
:1016800080938802089510928802089508950E9418
:10169000460B089590915E02292F2823211531F0E1
:1016A0008095892380935E020E94470B08950895D8
:1016B0000E94570B089590915F02292F2823281725
:1016C00029F0982B90935F020E94580B08959091F7
:1016D0005F02292F2823211531F0809589238093DB
:1016E0005F020E94580B089580915F02811529F0D6
:1016F00010925F0280E00E94580B0895CF93C09132
:10170000890280918802C82B80915F02811531F097
:10171000C82B0E94DD1981110E94740B8C2FCF9170
:101720000895CF93DF93C0910201D09103010E94ED
:101730007E0B8883C0910201D091030148E050E004
:1017400065E572E0CE010E943427892B59F088E0CC
:10175000FE01A5E5B2E001900D928A95E1F7CE0178
:101760000E946819DF91CF910895CF93DF93C091C4
:101770000001D09101010E947E0B8983C09100017C
:10178000D091010140E250E065E372E0CE010E9499
:101790003427892B59F080E2FE01A5E3B2E00190E5
:1017A0000D928A95E1F7CE010E947319DF91CF91D6
:1017B00008950E944E1B813039F48091E30287FF27
:1017C00003C00E94B50B08950E94910B08950895DF
:1017D0000E94E70B0895962F2091E40222FF11C08A
:1017E000682F660F660F660F692B60935D020E947B
:1017F000420780915D028695869586950E94E80B4A
:1018000008950E944207089510925D0280E00E94B0
:10181000E80B089590915D028095892380935D0285
:10182000282F277021110DC0891759F09091E402DB
:1018300092FF07C08695869586950E9452070E9462
:10184000040C08959091E40292FB222720F92817B6
:1018500069F080FB92F99093E4028091E302909109
:10186000E4020E94700C82E00E940A0C08958091AC
:10187000E402002482FF0394802D0E94220C08952C
:1018800081E00E94220C089580E00E94220C0895BD
:101890006FEF7FEF80E090E00E948627089580E060
:1018A00090E00E9452279C0181E0253E3E4F09F0C6
:1018B00080E0089582E090E00E944A27089583E046
:1018C00090E00E944A2790E00895682F83E090E01E
:1018D0000E946827089584E090E00E9452270895AE
:1018E000BC0184E090E00E9486270895AB01BC0112
:1018F0008FE090E00E947A270895AB01BC0183E15C
:1019000090E00E947A27089560E070E0CB010E9489
:101910007D0C089560E070E0CB010E94760C0E947F
:10192000840C0895A8E0B0E0E8E9FCE00C94F92606
:1019300065EE7EEF80E090E00E94862760E082E026
:1019400090E00E94682781E090E09093F3018093FB
:10195000F2010E94650C60E074E184E090E00E9476
:10196000862760E086E090E00E94682760E087E0DC
:1019700090E00E94682740E050E0BA0188E090E0E3
:101980000E947A2760E083E290E00E94682760E08E
:101990008CE090E00E94682760E08DE090E00E947B
:1019A000682719821A821B821C821D821E821F8256
:1019B000188648E050E067E170E0CE0101960E9491
:1019C000582740E050E0BA018FE190E00E947A276A
:1019D0000E948A0C2896E2E00C9415270E94920C33
:1019E0000895682F8EE090E00E9468270895A6E091
:1019F000B0E0EDEFFCE00C94F7260E94111C8C0186
:101A000080918A0290918B028017910779F0198258
:101A10001A820E94111CBC0149815A8180E090E029
:101A20000E940B0310938B0200938A022696E4E037
:101A30000C9413270E943F106093960270939702B4
:101A4000809398029093990260939202709393020C
:101A500080939402909395020895089508950E94AA
:101A60002D0D089508950E94320D0E942F0D0895A6
:101A700008950E94380D089508950E943C0D0E941B
:101A8000390D089581E0089581E690E10E945F1488
:101A90000E942E0D0E94330D08950E945112089548
:101AA0000895089508950E94500D0E94510D0E94BE
:101AB000520D08950E944F0C811102C00E94EE0C3D
:101AC0000E945A0C80939A020E946B0C9093E4023D
:101AD0008093E3020E9417150E945F0C0E94060784
:101AE0008091F0019091F1010E94270708950E94D2
:101AF000081C0E9419100E9457120E9479110E941E
:101B00005A0D0E94E5020E941A15E3EEF2E0808170
:101B1000806880838091E3029091E4020E94700CBF
:101B20000E94821F0E9469120E943D0D0895A6E046
:101B3000B0E0EDE9FDE00C94F0260E94420D811129
:101B40000CC00E94F70C0E9451120E94C4170E9400
:101B5000F2022696EBE00C940C270E94C3118CE84D
:101B6000A82E82E0B82E750110E0F70101917F01E7
:101B7000812F0E947D101F5F163009F442C00817A4
:101B8000A1F380919A0281FD0E9483100E944D0D65
:101B9000C82E00E099249394802F0E947D10182F66
:101BA000F50191915F01891731F1D82ED926F12CD9
:101BB000EE24E3948E2D8D218115B1F0C114A1F096
:101BC000F9820A830E94111C9C838B839D8291E081
:101BD0008E2D8123811101C090E049815A816B8152
:101BE0007C818D810E940B03F394EE0CF6E0FF12D2
:101BF000E1CFF50112930F5F063071F60E941A0DC6
:101C0000A2CF0813BECF9DCF1F93CF93DF930E9427
:101C1000290FEC01811522E5920708F05DC08115BE
:101C200040E5940708F0DBC0803E910528F58D3C27
:101C3000910508F0ACC0883A910578F4853A910591
:101C400008F0A2C08130910509F441C00497813A9F
:101C50009105E8F1C0E0D0E03AC0885A91094B976D
:101C6000C8F7C85AD0E0CC0FDD1FCB56DE4F099025
:101C7000D881C02DD4642BC0811550E49507F8F4A9
:101C8000C11580E2D80708F0C0C0C83ED105F8F001
:101C9000CE019A9581159F41E8F68D2F0E94CA0FBB
:101CA000182FCE0199270E94290F212F30E0322FC3
:101CB0002227E901CC27DF71C82BD92B08C099272F
:101CC0000E94290FCC27DF70C82BD92BD06ACE01F8
:101CD000DF91CF911F910895803842E59407C8F5B0
:101CE000803652E5950708F05BC0C03482E5D8071E
:101CF000D0F4C03292E5D90708F04BC08C2F8695FE
:101D0000869520E2829FC0011124C37021E030E05B
:101D1000A90102C0440F551FCA95E2F7EA01C82B7A
:101D2000D92BDD68D4CF8C2F86958695877050E2AD
:101D3000859FC0011124C37021E030E0A90102C0D9
:101D4000440F551FCA95E2F7EA01C82BD92BDC686E
:101D5000BECF803C52E5950758F48F71C03AD2450A
:101D6000A0F590E0982F8827EC01C46FD06AAFCF20
:101D7000805C9245809708F06DCFDC2FCC27CC2774
:101D8000DF71C06FD06AA3CFA497D064A0CFD06515
:101D90009ECFCF71D0E0DC2FCC27C16FD06A97CF18
:101DA00086958695877020E2829FC0011124C370BA
:101DB00021E030E0A90102C0440F551FCA95E2F7A7
:101DC000EA01C82BD92BDA6882CF0E94CA0FC82F2C
:101DD000D0E0DC2FCC27CC27DF71D06278CF8F7199
:101DE0000E94CA0F53E0CC0FDD1F5A95E1F7CC27B4
:101DF000DF70282F30E084FF04C050E1859F900100
:101E00001124C22BD32BD06962CF8D2F8F710E94EA
:101E1000CA0F182FCE0199270E94290F212F30E0D9
:101E2000322F222722273F71282B392BE901D5CFCA
:101E3000462F672F763028F4463018F40E9493011D
:101E4000089580E090E008950E94180F0E94040E0B
:101E500008959C01803E910509F448C0D8F481336F
:101E6000910509F47DC048F48932910509F46DC0EB
:101E70008A9709F47CC0C90108958933910551F10D
:101E80008238910539F1C597B1F78091E30285FF5A
:101E9000F2CF29C0843E910509F447C048F4823E40
:101EA000910599F1833E9105A9F121EE30E0E3CF50
:101EB000863E910509F444C0873E9105E1F6809184
:101EC000E30283FD61C09091E40291FF2BC024EEF8
:101ED00030E0D1CF8091E3028370811152C08091B4
:101EE000E40283FFC8CF29E230E0C5CF8091E3024E
:101EF00080FD33C09091E40290FFBDCF23EE30E02F
:101F000084FFB9CF20E030E0B6CF8091E30282FDBC
:101F1000F5CFB1CF8091E30282FD30C09091E40211
:101F200090FD2FC084FFA7CFEDCF8091E40281FF09
:101F3000A2CF8091E30227EE30E084FDE3CF9BCF78
:101F40008091E30283FDF7CF96CF8091E30285FD78
:101F50001EC08091E40283FF8ECF29E330E08BCF57
:101F60008091E30286FF87CF2AE230E084CF809120
:101F7000E30286FF80CF21E330E07DCF22EE30E028
:101F80007ACF20EE30E077CF26EE30E074CF25E335
:101F900030E071CF9091E30292FF10C041E0282F12
:101FA0002471243009F040E031E0282F28712830D6
:101FB00009F030E0431711F02CE0822793FF10C0A6
:101FC00041E0282F2471243109F040E031E0282F2E
:101FD0002871283109F030E0431711F02CE08227F6
:101FE0003091E40230FF10C051E0282F21712130E0
:101FF00009F050E041E0282F2871283009F040E036
:10200000541711F029E0822731FF10C041E0282F3A
:102010002171213109F040E031E0282F2871283169
:1020200009F030E0431711F029E0822794FD877E04
:1020300008951092E5021092E6021092E7021092C3
:10204000E8020895CF92DF92EF92FF926B017C013C
:102050000E94511281110EC00E941D1CC61AD70A7F
:10206000E80AF90AC092E502D092E602E092E7029D
:10207000F092E802FF90EF90DF90CF900895CF921A
:10208000DF92EF92FF920E945112811559F00E9447
:102090001D1C6B017C01C701B601FF90EF90DF9022
:1020A000CF9008950E941D1CC090E502D090E602DA
:1020B000E090E702F090E802C60ED71EE81EF91E77
:1020C000EACF80E00895CF939C01FB01805E9245AA
:1020D000C1E0809738F4C581C11104C0822F8F718F
:1020E0000E9423028C2FCF91089508950E947510AD
:1020F000089508950E9479100895E82FF0E0E051C6
:10210000FD4F80810895089580EA8A95F1F708953A
:1021100000C008950E948410089508950E948D10B3
:102120000895A3E0B0E0E7E9F0E10C94F5260E9401
:102130005112182F8091F60290E080519D4F111599
:10214000E1F103E09E012F5F3F4F7901F901202F5C
:1021500011922A95E9F7B7010E9477128115B9F01B
:102160008091E90290E043E050E0B70180519D4F3B
:102170000E94342721E020939B02892B91F410E0E8
:102180000E947A10812F2396E6E00C94112780910B
:102190009B028115A1F3F70111920A95E9F71092BC
:1021A0009B02E091E902F0E0E051FD4F89819A81C4
:1021B000AB8180839183A283E3CF2091E90230E059
:1021C000BC01C90180519D4F0E9402130E948E10D4
:1021D000D9CFF894E82FE295EF70F0E041A18F702D
:1021E00021E030E0B90102C0660F771F8A95E2F75F
:1021F000CB01962F9095942391A392A1892B82A332
:1022000078940895CF93DF93CAE0D1E089918F3F0E
:1022100011F00E94E91081E0CD30D807B9F7C4E091
:10222000D1E089918F3F11F00E94E91081E0CA301E
:10223000D807B9F7DF91CF910895A0E0B0E0E3E2CD
:10224000F1E10C94F326EC01D62E062F10E0C80124
:10225000865F9E4F7C01FC0180818F3F09F444C062
:10226000F894E82FE295EF70F0E091A18F7021E0F3
:1022700030E001C0220F8A95EAF7892F822B81A3D3
:1022800082A12095282322A378940E948810A4E09C
:10229000B1E091E0C12C8D918F3F79F0E82FE2956C
:1022A000EF70E05EF0E0208130E08F7002C0359585
:1022B00027958A95E2F7892F20FD80E0C82A990F9B
:1022C000F1E0AA30BF0739F7F70180818F3F11F0A5
:1022D0000E94E91061E0C11001C060E08D2D0E94F4
:1022E0008A10C00FD11FC882CDB7DEB7E8E00C94CA
:1022F0000F27A6E0B0E0EFE7F1E10C94F92680911A
:102300000D0181111BC086EC80930A0184E3809348
:102310000B0185E380930C0186E0EBECF1E0DE013C
:10232000119601900D928A95E1F786E0FE013196B3
:10233000A4E0B1E001900D928A95E1F780910D0142
:1023400090E0811101C093E09093F60283E0891B35
:102350008093E9020E94021186E0E0EFF2E0DF01E3
:10236000982F1D929A95E9F7EAEEF2E0DF011D92AF
:102370008A95E9F783E00E9403120E947610269660
:10238000E2E00C941527A6E0B0E0E9ECF1E10C9452
:10239000F7268E010F5F1F4F86E0F80111928A9594
:1023A000E9F760E0C8010E941D1161E0C8010E94C8
:1023B0001D1162E0C8010E941D1146E050E0B80105
:1023C0008AEE92E00E94342721E0892B99F420E0E4
:1023D0006091F60270E060517D4F43E08AEE92E03A
:1023E0000E940412182F0E949110812B2696E4E07F
:1023F0000C94132786E0F801AAEEB2E001900D924A
:102400008A95E1F7E5CF0895A0E0B0E0EAE0F2E1D7
:102410000C94F326D82EE92EF62ED72F042FC22F98
:10242000211579F081E080939E020E94111C909307
:102430009D0280939C0280E0CDB7DEB7E8E00C946B
:102440000F27C0909E02C114B1F380919C0290911D
:102450009D020E948F1B059770F310E0A8016D2D5F
:102460007E2D8F2D9D2F0E943427892B41F0A801AE
:102470006D2D7E2D8F2D9D2F0E944127CC2D1092EA
:102480009E028C2FD9CFCF930E94B626C82F8111E0
:1024900002C00E94B1268C2FCF9108958091A20294
:1024A00008958091A10208950E94511208950E94FA
:1024B00043128093A1020E9454128093A2020E94B0
:1024C0004E1280930D010E94511281110E94AD1293
:1024D00008950E945112811102C00E94B012089505
:1024E00081E09091A3029A3008F080E008950F9364
:1024F0001F93CF93DF93EC01162F072F8091A30238
:102500008A3090F4612F702FCE010E94FF1281114A
:1025100021C08091A3028F3FB1F40E94111C9093BF
:10252000A00280939F0209C080919F029091A00217
:102530000E948F1B843F914028F780E0DF91CF916C
:102540001F910F9108958F5F8093A3028A3028F71F
:1025500081E0F4CF1092A302FBCF0E94C01C08952B
:102560000E94C31C0895A0E0B0E0E9EBF2E10C94F6
:10257000F326FA0169017801C82F880FDD0B309727
:10258000B9F0DE0193E0AA0FBB1F9A95E1F7A25FB5
:10259000BE4F11968D919C9112978C559D4F2C9109
:1025A000422F50E0E217F10508F4AF010E944127E5
:1025B000CE010E94AE1D182F8115D9F0E114F1044F
:1025C000C1F083E0CC0FDD1F8A95E1F7FE01E25FE9
:1025D000FE4F8381482F50E0E816F10408F4A7016C
:1025E000C25FDE4F6C817D816C557D4FC6010E94BC
:1025F0004127812FCDB7DEB7E8E00C940F270E946A
:10260000F81308950E9411140895A4E0B0E0EBE0DF
:10261000F3E10C94F7266091B7027091B8028091B3
:10262000B9029091BA020E94991B11E064367105BB
:102630008105910520F10E943F10DC01CB0102963B
:10264000A11DB11D89839A83AB83BC8300E010E098
:1026500020E030E044E050E0BE016F5F7F4F82E059
:102660000E94B312182F811551F00E941D1C609317
:10267000B7027093B8028093B9029093BA02812F87
:102680002496E4E00C941327A4E0B0E0EAE4F3E13C
:102690000C94F1267B01C090D201D090D30101E0CF
:1026A00010E09E012C5F3F4F40E050E060E070E0A2
:1026B00080E00E94B312182F811509F447C056011B
:1026C0008FEFA81AB80A6091B3027091B40280919A
:1026D000B5029091B6020E94991B6436710581057E
:1026E000910560F103E010E09E012F5F3F4F40E055
:1026F00050E060E070E081E00E94B312182F63E0C8
:1027000070E0C5010E941B159C81981328C011150B
:1027100031F10E941D1C6093B3027093B402809348
:10272000B5029093B60289819A81AB818093B00201
:102730009093B102A093B20281E012C063E070E016
:10274000C5010E941B159C818913CCCFF6018181A4
:102750009281A38189839A83AB831111E4CF80E0B6
:102760002091B0023091B1024091B202F701208372
:10277000318342832496EAE00C940D27A0E0B0E078
:10278000E4ECF3E10C94F126182F092FB62EA72EB6
:102790007A010E9470129AE0C92ED12C811103C0D7
:1027A000CC24C394D12CC1E0D0E06B2D7A2D812FA5
:1027B000902FF7010995811116C02196CC16DD06E0
:1027C00094F0CC9FC001CD9F900D900D112420E07E
:1027D00030E045E34A95F1F700002F5F3F4F28179F
:1027E0003907B9F7E2CFCDB7DEB7EAE00C940D2791
:1027F0000F931F93CF93DF93D82FC92F8B0144E4FE
:1028000053E10E94BE13811539F045E053E1B80150
:102810008D2F9C2F0E94BE13DF91CF911F910F919E
:1028200008950F931F93CF93DF93FB01C091D201C3
:10283000D091D301CE01019623E0DC0101900D92ED
:102840002A95E1F763E070E00E941B1588836C8194
:102850007D818E819F810091AC021091AD0220910B
:10286000AE023091AF02601771078207930751F0F3
:102870006093AC027093AD028093AE029093AF026E
:102880000E942210DF91CF911F910F9108950E9415
:10289000970D08950E94AA1B0E94DF1F0E94440DFD
:1028A0000E94F91F0E94770D0E9406200E940B20B3
:1028B0000E9447140E9425200E94530DF7CF909349
:1028C000D5018093D4010895CF93DF938091BC020A
:1028D00080688093BC02CCEBD2E089910E94A21F59
:1028E00082E0C23CD807C9F7DF91CF910895482F05
:1028F00067E00E94C326282F30E0F901E454FD4F21
:10290000C90153E0880F991F5A95E1F7281B390B2D
:10291000240F311D86E090E0821B930B21E030E014
:1029200001C0220F8A95EAF78081822B808380E0A4
:10293000089581E0089581E0089581E00895EF927F
:10294000FF920F931F93CF93DF93EC017B018C01D8
:10295000005C14470034110508F04CC0DB011496EC
:102960008C91811509F446C0CE010E949D148115F9
:10297000B9F00A321105A0F40091BB02F70185817C
:102980008115A1F00F5F0093BB028C2F805C0E9429
:1029900077142CEB32E040E0B701CE010E949B148B
:1029A00080E0CDB7DEB7E6E00C941127015000932C
:1029B000BB022CEB32E040E0B701CE010E949B1439
:1029C000811571F38091BB02181654F31092BB026B
:1029D0006CEB72E080E00E949914811108C0ECEB6E
:1029E000F2E086E0DF011D928A95E9F7D9CF0E94D7
:1029F0006414F5CF81E0D5CF0E94480C089580E0A3
:102A00000E947D10817008950E94C3118FE39CE99C
:102A10000197F1F700C000000E94C3110E94FF144B
:102A2000811521F00E94FC140E944D1C08950E9403
:102A3000041508950895FC01680F791F8FEF41E395
:102A4000E617F70709F408959191892728E030E007
:102A5000982F990F87FF06C0892F84272150304077
:102A6000B9F7EECF892FFACFCF93DF93EB01863101
:102A70009C4719F50E94210B9D819115A1F08A7A3E
:102A800091E0811101C090E09093C202811549F05C
:102A900085E30E948E1A0E94D90B80E0DF91CF91CE
:102AA000089589E2F6CF8091C202811521F085E375
:102AB0000E94A81AF0CF89E2FBCF81E0EFCFCF933D
:102AC000DF93EC01FB018581811509F4CFC09E01E4
:102AD00030572332310508F0AFC00E946B0C909341
:102AE000E4028093E302FE01E150F047E232F10597
:102AF00020F4E655F84D0C94E3268091E3028160C2
:102B00008093E30290C08091E40288608093E402A5
:102B10008AC08091E3028260F3CF8091E3028460F7
:102B2000EFCF8091E3028860EBCF8091E402816077
:102B3000EDCF8091E4028260E9CF8091E302806171
:102B4000DFCF8091E3028062DBCF8091E30280647B
:102B5000D7CF0E94B0068091E3028068D1CF8091E8
:102B6000E3028C60CDCF8091E4028360CFCF80916F
:102B7000E3028E7FC5CF8091E402877FC7CF80912B
:102B8000E3028D7FBDCF8091E3028B7FB9CF80912F
:102B9000E302877FB5CF8091E4028E7FB7CF80912B
:102BA000E4028D7FB3CF8091E3028F7EA9CF809125
:102BB000E3028F7DA5CF8091E3028F7BA1CF0E949E
:102BC000B0068091E3028F779BCF8091E302837FF1
:102BD00097CF8091E4028C7F99CF8091E30299276F
:102BE00082FF939590FB82F990FB83F989CF8091C6
:102BF000E402982F909590FB80F990FB81F986CFA5
:102C00009091E302892F8F7B96FF806479CF0E9499
:102C1000B0069091E302892F97FB87F9805870CF17
:102C200081E00E94F10C8091E3029091E4020E9405
:102C3000700C0E94B00680E0DF91CF91089580E093
:102C4000F0CF9091E302892F8F7E94FF806158CF5F
:102C50009091E302892F8E7F90FF816051CF9091F8
:102C6000E402892F877F93FF886050CF81E0E4CF13
:102C7000282F35EB2303C001112497FF04C080588F
:102C80009109892F089580589F4FFBCF8091C902E9
:102C900080FF0DC060912B0170E0660F771F6038D8
:102CA0007105B0F561157105A9F1862F089581FFB1
:102CB00007C060912B0184E0689FB0011124EFCF21
:102CC00082FF04C060912B0188E0F6CF9091C8028A
:102CD0009115D9F020912A0180912B01682F70E085
:102CE000921730F043E0660F771F4A95E1F7D7CF90
:102CF000899FC001112433E0880F991F3A95E1F7AD
:102D0000622F70E00E94CF26CACF68E070E0CDCF7E
:102D10008FE7089581E008958091C90280FF0CC07B
:102D20006091270170E075956795759567956115B8
:102D3000710549F1862F089581FF06C06091270132
:102D400070E075956795F3CF6091270182FD0BC008
:102D50009091C7029115A1F0609126018091270101
:102D6000961738F0682F70E06038710500F38FE730
:102D70000895899FC001112470E00E94CF26F4CFEE
:102D800061E070E0D7CF81E00895E3E3E80FE3313D
:102D9000E0F5F0E0E453F84D0C94E3260E9446166B
:102DA00081958093CD0208950E944616FACF0E9425
:102DB000461681958093CC0208950E944616FACF5C
:102DC0000E948C168093CE0208950E948C168195E5
:102DD000F9CF0E948C1681958093CF0208950E94AE
:102DE0008C16FACF815D990B21E030E001C0220FF3
:102DF0008A95EAF78091CB02822B8093CB020895CB
:102E00008091C90281608093C90208958091C902AE
:102E10008260F9CF8091C9028460F5CF4091CC02E5
:102E20008D3C59F48091CD0287FF0DC01092CD02E8
:102E3000411559F41092C80208C08E3C81F480916B
:102E4000CD0218169CF3411581F08091CE0290912D
:102E5000CF02892B811159C01092C70208958F3C6F
:102E600041F447FFF0CF1092CC028091CD02811542
:102E7000E0CF803D19F41416B4F3E5CF9091CE0263
:102E8000893D29F41916FCF61092CE02DCCF8A3D5A
:102E900019F497FFD8CFF8CF9091CF028B3D29F44A
:102EA00097FFD1CF1092CF02CECF8C3D19F41916D7
:102EB000CCF3C9CF9FE2980F983090F4815D990BC5
:102EC00021E030E0B90102C0660F771F8A95E2F772
:102ED000CB0180959091CB0289238093CB02B3CF15
:102EE0008D3D31F48091C9028E7F8093C902ABCFB2
:102EF0008E3D21F48091C9028D7FF7CF8F3D09F07F
:102F0000A2CF8091C9028B7FF0CF08950E94111C3F
:102F10002091CC023091CD02232B211521F08093FA
:102F2000C5029093C6022091CE023091CF02232B8E
:102F3000211521F08093C3029093C4028AEC92E0A1
:102F40000E948219089586E0EAECF2E0DF011D920A
:102F50008A95E9F71092C8021092C7021092C9022E
:102F60000895FC01828181110DC0838181110AC005
:102F70008481811107C081E09581911101C080E0B9
:102F80008170089581E0FCCFA6E0B0E0EAECF7E1C3
:102F90000C94F32686E0EAECF2E09E012F5F3F4FAF
:102FA000D90101900D928A95E1F71092CC0210920E
:102FB000CD021092CE021092CF028B819C81892B80
:102FC0007901811589F08091C5029091C6020E9415
:102FD0008F1B6C018091C8028115B9F190912C0171
:102FE0009C151D0408F43EC08D819E81892B81159E
:102FF00091F08091C3029091C4020E948F1B8C01BA
:103000008091C702811509F45FC090912801901743
:10301000110608F467C0B7018AEC92E00E94DC1A3E
:10302000811105C08AEC92E00E94B11781110E94C3
:10303000861786E0F701AAECB2E001900D928A951E
:10304000E1F72696E8E00C940F2720912D019AE0F5
:10305000299F900111242C153D0530F68F5F809338
:10306000C80202C08F3FD1F7DB80D11459F00E9413
:10307000461691E01D140CF09FEF899F802D1124BE
:103080008093CC02DC80D11459F00E94461691E066
:103090001D140CF09FEF899F802D11248093CD0289
:1030A0008091CC02811509F49FCFD090CD02D1142C
:1030B00009F49ACF0E9438168093CC028D2D0E947D
:1030C00038168093CD0290CF209129019AE0299F54
:1030D000900111242017310708F09DCF8F5F809356
:1030E000C70202C08F3FD1F71D81111559F00E9410
:1030F0008C1691E011160CF09FEF899F802D112402
:103100008093CE021E81111559F00E948C1691E019
:1031100011160CF09FEF899F802D11248093CF0210
:103120008091CE02811509F476CF1091CF0211154E
:1031300009F471CF0E9438168093CE02812F0E942D
:1031400038168093CF0267CF0F931F93CF93DF93EF
:10315000C42FD22FFC0185818115C9F04093D20282
:103160000E94111C9093D1028093D00280E28C0FB8
:10317000883040F4C77081E001C0880FCA95EAF733
:103180000E945804DF91CF911F910F9108951091E3
:10319000D202141333C08091D0029091D1020E94C8
:1031A0008F1B883C910550F5C0E2CD0F1D17C1F073
:1031B00080E2810F883040F4177081E001C0880FF1
:1031C0001A95EAF70E945F04C83050F491E08D2F01
:1031D000877001C0990F8A95EAF7892F0E945804D9
:1031E000802F0E944F04C83068F6D77081E001C07C
:1031F000880FDA95EAF70E945F04C4CF80E28C0F53
:10320000883008F0BFCFC77081E001C0880FCA9531
:10321000EAF7F1CF0F93DB01FC01E851FC47E730FF
:10322000F10598F5E152F84D0C94E32606E221EE03
:1032300041EE6AE17CE7CD010E94A41880E00F9185
:10324000089507E225EE45EE6BE17CE7F4CF06E258
:1032500021EE40EE68E17CE7EECF07E225EE44EE9A
:1032600069E17CE7E8CF06E221EE42EE6CE17CE723
:10327000E2CF07E225EE46EE6DE17CE7DCCF08E227
:1032800021E045EE6EE17CE7D6CF15968C91811159
:103290001092D20281E0D3CF9093D9028093D802CA
:1032A00008950E945112811103C08091D3020895A4
:1032B000E091D802F091D902309729F00190F08185
:1032C000E02D0995089580E008950E945119089510
:1032D000E091D802F091D902309721F00280F38179
:1032E000E02D09950895DC01E091D802F091D90212
:1032F000309739F086E08C930480F581E02DCD0184
:1033000009950895DC01E091D802F091D902309737
:1033100039F082E08C930680F781E02DCD0109958C
:103320000895A3E0B0E0E7E9F9E10C94F9269C01E7
:103330008091D6029091D70282179307A1F0309323
:10334000D7022093D602E091D802F091D9023097AB
:1033500051F083E089833B832A830084F185E02D4B
:10336000CE01019609952396E2E00C941527A3E07F
:10337000B0E0EDEBF9E10C94F9269C018091D402C8
:103380009091D50282179307A1F03093D502209334
:10339000D402E091D802F091D902309751F084E044
:1033A00089833B832A830084F185E02DCE01019639
:1033B00009952396E2E00C941527CF93DF93C091F3
:1033C0000201D091030122960E944E1B813081F4AC
:1033D0008091E30287FF0CC0C0910001D0910101F0
:1033E00022969EE180E0915028F4DF91CF910895DC
:1033F00096E0F8CF29912115B1F38F5FF4CFCF93E9
:10340000C82F811102C080E031C00E944E1B813064
:1034100021F48091E30287FD0EC08091020190911A
:103420000301FC013296089621912C1709F1E81747
:10343000F907D1F7E8CF8C2F869586958695C03F02
:1034400010F7E0910001F0910101E80FF11D2281D8
:1034500030E0C77081E090E002C0880F991FCA95E4
:10346000E2F72823392381E0232B69F2CF910895D5
:1034700081E0FCCF9C01FC0132968FEF90E04191FE
:10348000461751F08F3F19F4411101C0892F9F5FFA
:103490009630A9F78F3F09F40895280F311D87FD55
:1034A0003A95F901628308959C01FC013296285FE8
:1034B0003F4F8191861302C0DF011E92E217F3078E
:1034C000C1F70895FC01862F869586958695603F05
:1034D00060F4E80FF11D677021E030E001C0220FB9
:1034E0006A95EAF78281822B82830895FC01862FF8
:1034F000869586958695603F80F4E80FF11D67708C
:1035000081E090E09C0102C0220F331F6A95E2F730
:10351000B90160958281682362830895CF93C82F93
:103520000E944E1B6C2F813061F48091E30287FF73
:1035300008C080910001909101010E94621ACF9110
:10354000089580910201909103010E943A1AF7CFE9
:10355000CF93C82F0E944E1B6C2F813061F4809155
:10356000E30287FF08C080910001909101010E9451
:10357000761ACF91089580910201909103010E94E3
:10358000541AF7CF0E944E1B813079F48091E302E8
:1035900087FF0BC0E0910001F091010132968EE1AE
:1035A000DF011D928A95E9F70895E0910201F091FB
:1035B0000301329686E0F4CFDC01FB0111969C9169
:1035C00011978181981322C012968C9112978115C0
:1035D00019F0928189131AC013968C911397811553
:1035E00019F09381891312C015968C911597811546
:1035F00019F0958189130AC014969C91911521F0B8
:1036000081E02481291303C080E001C081E0817042
:10361000089508950E94091B08958F5F80933101DA
:1036200060912E0170912F018091300190913101B4
:103630000E940A1B089583E08093310160912E015E
:1036400070912F0180913001909131010E940A1BED
:1036500008950E940D1B089581E0809331016091CF
:103660002E0170912F0180913001909131010E94C3
:103670000A1B08950E942C1B089591E0811101C03E
:1036800090E09093300160912E0170912F01809114
:103690003001909131010E940A1B08958091300100
:1036A000089580932F0160912E0170912F018091D8
:1036B0003001909131010E940A1B089580912F01E1
:1036C000089580932E0160912E0170912F018091B9
:1036D0003001909131010E940A1B089580912E01C2
:1036E0000895089508950E94721B089508950895FD
:1036F0000E94711B0895CF930E94761B0E94C311F4
:103700000E94771BC0E08C2F0E947D10811105C0A4
:10371000CF5FC630C1F7CF91089581E0FCCFCF9342
:10372000DF93EC010E94111C8C1B9D0BDF91CF914C
:103730000895CF92DF92EF92FF926B017C010E947D
:103740001D1C6C197D098E099F09FF90EF90DF9079
:10375000CF90089585B7806885BF85B7806885BF9D
:1037600008951F921FB61F9211248F939F93AF93BA
:10377000BF938091DA02811113C08091F70290917A
:10378000F802A091F902B091FA024196A11DB11D73
:103790008093F7029093F802A093F902B093FA0293
:1037A000BF91AF919F918F911F901FBE1F90189551
:1037B0008091FF02843031F10E94C5021092DA023A
:1037C00088E190E020E40FB6F894A895809360001B
:1037D0000FBE2093600083B7817F846083BF83B76F
:1037E000816083BF7894889583B78E7F83BF0FB63F
:1037F000F894A89580916000886180936000109291
:1038000060000FBE08950E94B0060E94CC02089589
:1038100082E084BD93E095BD9AEF97BD80936E00E2
:1038200008952FB7F8948091F7029091F802A09133
:10383000F902B091FA022FBF08952FB7F894609162
:10384000F7027091F8028091F9029091FA022FBF6D
:10385000089578941F921FB61F9211248F939F93FF
:10386000AF93BF938091F7029091F802A091F90273
:10387000B091FA020196A11DB11D8093F7029093B9
:10388000F802A093F902B093FA02BF91AF919F9111
:103890008F911F901FBE1F90189587E797E7909311
:1038A00001088093000888E19AE00FB6F894A89583
:1038B000809360000FBE90936000FFCF88E19AE094
:1038C0000FB6F894A895809360000FBE90936000A7
:1038D000FFCF8EE1489B02C08A95E1F7489BFECF5F
:1038E0000895589880E28A95F1F7589A0895FC0156
:1038F0002BE02A95F1F728E090E080E031E040E10C
:103900004A95F1F7880F489B02C08160932742E0F7
:103910004A95F1F7000040E14A95F1F72A9579F7C9
:1039200020E12A95F1F729B132E03A95F1F700004C
:1039300040E14A95F1F7217092272081920F908300
:103940000895A1E0B0E0E7EAFCE10C94F5261982C5
:103950008C017C01E60EF11C0E94691CCE010196CF
:103960000E94771CF80181938F01EE15FF05A1F7E6
:1039700081E09981911180E02196E6E00C94112775
:10398000509A589A08955098589AE89AE9E6F0E0C3
:1039900080818C7F808308956150770B91E001C016
:1039A000990F6A95EAF7692F90E021E0611108C04C
:1039B000911599F0589A80E28A95F1F758980895F0
:1039C000362F3823311539F0589A922730E23A953C
:1039D000F1F76695EBCF5898F9CF5898ECCFFF9256
:1039E0000F931F93CF93DF93EC018C01060F111DF2
:1039F000F9900E94711C68E08F2D0E94CC1CC017AA
:103A0000D107B1F7CDB7DEB7E5E00C9412271F92CE
:103A10000F920FB60F9211240F931F932F933F9382
:103A20004F935F936F937F938F939F93AF93BF93C6
:103A3000EF93FF93CF93DF930F92CDB7DEB7198249
:103A40000E94691CCE0101960E94771C082F0695E2
:103A500006950695982F92959570202F2570920FB8
:103A6000292F237096959695920F982797708981A4
:103A7000892B811509F05CC0043008F059C080E141
:103A80008A95F1F7589A509A82E08A95F1F700C02A
:103A9000589888E0089F80011124D801A25FBE4F8A
:103AA0001696ED91FC9117973097A9F06091D2018D
:103AB0007091D30114962D913C911597260F371FC5
:103AC00011968D919C911297680F791F13964C91C6
:103AD00013978C910995F801E25FFE4F63816115A0
:103AE00051F02091D2013091D30184819581820FD0
:103AF000931F0E94EF1C0E94711C80E18A95F1F7D0
:103B000058985098589A80E18A95F1F7F801E25F49
:103B1000FE4F6081611551F02091D2013091D301A7
:103B200081819281820F931F0E94A11C0E94691CB7
:103B30000F90DF91CF91FF91EF91BF91AF919F9146
:103B40008F917F916F915F914F913F912F911F9135
:103B50000F910F900FBE0F901F9018950F931F930A
:103B6000CF93DF938C0104970CF064C0F894509AC3
:103B7000589885E08A95F1F70000C02FC695C5706A
:103B8000802F8570C80F8C2F8370C695C69593E0E3
:103B9000000F111F9A95E1F7C80FC8018C2BEC019B
:103BA0000E94711C00C068E08C2F0E94CC1C90E128
:103BB0009A95F1F75098589A489B35C087E090E065
:103BC000489933C0F801E25FFE4F6381611561F0EF
:103BD0002091D2013091D30184819581820F931F6E
:103BE0000E94A11C811519F10E94691C80E28A952E
:103BF000F1F75898509A90E19A95F1F7F801E25F41
:103C0000FE4F6081611551F02091D2013091D301B6
:103C100081819281820F931F0E94EF1C0E94711C70
:103C2000789481E008C000C0C7CF019749F4509A4A
:103C3000589A789480E0DF91CF911F910F91089569
:103C400000C0BECF282FCB01BA013091FF02343023
:103C5000D9F42F702093E9002FEF3091E80035FD63
:103C600006C035ED3A95F1F700002A95B1F720919D
:103C7000E80025FF09C040E050E00E94A2208091AA
:103C8000E8008E778093E8000895BC0143E050E09F
:103C900082E00E94221E0895BC0146E050E082E0CE
:103CA0000E94221E0895BC0140E250E082E00E9482
:103CB000221E0895CF93DF93D82FC92F0E944E1B49
:103CC00048E050E06D2F7C2F81E00E94221E88E0AA
:103CD000ED2FFC2FABEDB2E001900D928A95E1F74C
:103CE000DF91CF9108958091FE02811109C00E9459
:103CF0002B220E9488228091E20084608093E2005F
:103D000008951092FE0208950E942C1B81E00E94EB
:103D10003D1B08956091FB0281E0611101C080E0CC
:103D20000E941B1B08959091FF0281E0943009F0DE
:103D300080E06091FB020E94291B089542E061EC43
:103D400081E00E94A72142E261EC82E00E94A7216B
:103D500042E061EC83E00E94A72142E160E885E057
:103D60000E94A72142E161E884E00E94A72190918E
:103D7000FF0281E0943009F080E06091FB020E9434
:103D80000D1B089580910103893009F44AC068F43D
:103D9000823009F4A6C0833009F475C0813011F176
:103DA00082E391E00E94032608958A3009F488C0D6
:103DB0008B30B1F780910003813291F78091040339
:103DC00090910503892B61F78091E800877F8093AC
:103DD000E8000E94DB21809102030E943D1B0E94AB
:103DE000B006DECF80910003813AD1F68091E800E1
:103DF000877F8093E8008091040390910503892BCD
:103E000061F060E080E090E070E00E94F22080913C
:103E1000E8008B778093E800C3CF68E08BED92E0F9
:103E2000F3CF80910003813209F0BACF809104036F
:103E300090910503029708F0B3CF8091E800877F47
:103E40008093E8008091E80082FF18C09091F30011
:103E50008091F200029731F48091F100813011F0ED
:103E6000863021F48091F1000E94511B8091E8007E
:103E70008B778093E8000E94DB2192CF8091FF0234
:103E80008111E0CF089580910003813A09F088CF35
:103E90008091040390910503892B09F081CF8091D3
:103EA000E800877F8093E8008091E80080FFFCCFE6
:103EB0000E944E1B8093F1008091E8008E77D9CF4D
:103EC00080910003813209F06BCF8091E800877FF9
:103ED0008093E8000E94DB21809103030E94611B14
:103EE0005FCF80910003813A09F05ACF8091E800BA
:103EF000877F8093E8008091E80080FFFCCF0E94DC
:103F00006E1BD8CF82E090E09093450180934401EE
:103F100082E391E00E94C72508950895CF93DF932F
:103F200082E391E00E946F25EC01209719F4DF9164
:103F3000CF91089582E391E00E9497250E948D1F02
:103F40002197F3CFCF939091E900C091EC0020919D
:103F500042013091430120FF15C09F70C795CC27C7
:103F6000C795C92B909133019F709093E900909170
:103F7000EB0090FF04C09091EE0097FD05C0CF705C
:103F8000C093E900CF9108959FEF2091E80025FDAF
:103F900006C025ED2A95F1F700009A95B1F78093B8
:103FA000F10082E391E00E9428258091E80080FFE3
:103FB000E6CF8091E8008E778093E800E0CF84B769
:103FC000877F84BF0FB6F894A895809160008861C0
:103FD00080936000109260000FBE80E890E00FB602
:103FE000F89480936100909361000FBE0E943A1B89
:103FF00008950E942B220E948822E2EEF0E0808148
:104000008460808378940E940E2508958DE491E069
:104010000E944C1908958091FF02853031F48091FF
:10402000FF02853019F00E94031C08950E94D81BDE
:104030000E947B1B811599F38091FD02811579F314
:104040000E948C200E94B006EACF0E948E1F82E35D
:1040500091E00E94562508959A01409106035091DF
:1040600007030E9434200895FC01D9018F2F99275E
:1040700083309105C1F068F48130910509F447C09F
:10408000029761F488E790E026E331E02D933C93BA
:10409000089581329105E1F0829749F180E090E046
:1040A00020E030E0F3CFCF019927E13059F08230A2
:1040B000910559F0E2E3F1E0892B81F7849190E0DA
:1040C0009F01E4CFE2E2F1E0F9CFE4EFF0E0F6CFD8
:1040D00089E090E028E431E061157105B9F289E0EA
:1040E00090E021E631E06130710581F2D7CF84E4C0
:1040F00090E026E732E06115710541F286EB90E031
:1041000020EC31E06130710509F4C0CFC7CF82E106
:1041100090E02EEA31E0BACF80E189BD82E189BD2D
:1041200009B400FEFDCF8091D8008F7D8093D80028
:104130008091E00082608093E0008091E00081FD4A
:10414000FCCF0895AF92BF92CF92DF92EF92FF9291
:104150000F931F93CF936C018B017A010E94FA2178
:10416000C82F811123C0E114F10439F0F7018081D7
:104170009181081B190BC80ED91EA12CB12C011559
:104180001105A1F08091E80085FD21C08091E80033
:104190008E778093E800E114F10499F0F7018081B3
:1041A00091818A0D9B1D91838083C5E08C2FCF91D7
:1041B0001F910F91FF90EF90DF90CF90BF90AF9045
:1041C00008950E94FA218115E9F2C82FEFCFF60178
:1041D00081916F018093F10001501109FFEFAF1A37
:1041E000BF0ACDCFFC019B0180910603909107038C
:1041F0008617970718F0672B61F0C90140E0009718
:1042000071F441110CC08091E80082FF35C080E05C
:1042100008958091E8008E778093E800EECF20919A
:10422000FF022115A9F12530A9F12091E80023FD15
:104230002DC02091E80022FDE6CF2091E80020FF6C
:10424000DECF3091F3002091F200009719F0283072
:10425000310558F041E02830310509F040E0209167
:10426000E8002E772093E800CACF41914093F100F7
:1042700001972F5F3F4FE9CF8091FF02811541F0F9
:10428000853041F08091E80083FFBDCF81E0089543
:1042900082E0089583E00895FC019B01809106036C
:1042A000909107038617970718F0672B61F0C901F3
:1042B00040E0009771F441110CC08091E80082FF4A
:1042C00036C080E008958091E8008E778093E80002
:1042D000EECF2091FF022115B1F12530B1F12091EF
:1042E000E80023FD2EC02091E80022FDE6CF2091BA
:1042F000E80020FFDECF3091F3002091F20000971C
:1043000019F02830310558F041E02830310509F026
:1043100040E02091E8002E772093E800CACF449136
:104320004093F100319601972F5F3F4FE8CF809186
:10433000FF02811541F0853041F08091E80083FF54
:10434000BCCF81E0089582E0089583E00895982F1E
:10435000973028F08F708093E90081E00895909362
:10436000E900242F762F50E0981731F07091EC007F
:104370002091ED005091F00021FD02C09F5FE8CF39
:104380003091EB003E7F3093EB003091ED003D7FAC
:104390003093ED003091EB0031603093EB0070937F
:1043A000EC002093ED005093F0002091EE0027FDEB
:1043B000E5CF80E008958091000387FF13C08091CE
:1043C000E80082FF06C08091E8008B778093E800C8
:1043D00008958091FF028111F2CF08958091FF022C
:1043E0008115D9F38091E80080FFF8CF8091E80033
:1043F0008E77ECCF2091E4003091E50095E6A9019D
:104400002091EC00822F817020FF06C08091E8008F
:1044100080FF06C080E008952091E80022FD1AC0C8
:104420008091FF02811589F0853089F08091EB0041
:1044300085FD0FC02091E4003091E500421753073D
:10444000F9F29A95E1F684E0089582E0089583E018
:10445000089581E008950E949A220E94A222E0EE2F
:10446000F0E0808181608083E8EDF0E080818F77EB
:10447000808319BCA7EDB0E08C918E7F8C938081F6
:104480008F7E80831092FE0208950F931F93CF9327
:10449000DF930E949A220E94A222C8EDD0E0888178
:1044A0008F77888388818068888388818F7D8883DF
:1044B00019BC1092FF021092FB021092FD021092A2
:1044C000FC0200EE10E0F80180818B7F8083888100
:1044D0008160888342E060E080E00E94A721E1EEF5
:1044E000F0E080818E7F8083E2EEF0E08081816069
:1044F0008083808188608083F80180818E7F8083C3
:10450000888180618883DF91CF911F910F910895F9
:10451000E8EDF0E080818F7E8083E7EDF0E0808140
:104520008160808384E082BF81E08093FE020E94EC
:1045300045220895E8EDF0E080818E7F808310921F
:10454000E20008951092DA001092E10008951F929F
:104550000F920FB60F9211242F933F934F935F93B7
:104560006F937F938F939F93AF93BF93EF93FF933B
:104570008091E10082FF0BC08091E20082FF07C0C2
:104580008091E1008B7F8093E1000E940D25809156
:10459000DA0080FF19C08091D80080FF15C080919B
:1045A000DA008E7F8093DA008091D90080FF94C07A
:1045B00080E189BD82E189BD09B400FEFDCF81E0C3
:1045C0008093FF020E94731E8091E10080FF19C05A
:1045D0008091E20080FF15C08091E2008E7F809381
:1045E000E2008091E20080618093E2008091D80037
:1045F00080628093D80019BC85E08093FF020E94FE
:104600008A1E8091E10084FF29C08091E20084FF2E
:1046100025C080E189BD82E189BD09B400FEFDCFDE
:104620008091D8008F7D8093D8008091E1008F7EAB
:104630008093E1008091E2008F7E8093E200809180
:10464000E20081608093E2008091FB02811509F411
:1046500049C084E08093FF020E94931E8091E10094
:1046600083FF29C08091E20083FF25C08091E10093
:10467000877F8093E10082E08093FF021092FB022B
:104680008091E1008E7F8093E1008091E2008E7F37
:104690008093E2008091E20080618093E20042E03A
:1046A00060E080E00E94A7218091F0008860809304
:1046B000F0000E94841EFF91EF91BF91AF919F91F6
:1046C0008F917F916F915F914F913F912F910F90BB
:1046D0000FBE0F901F90189519BC1092FF020E94F8
:1046E000811E72CF8091E30087FF02C083E0B2CFCA
:1046F00081E0B0CF1F920F920FB60F921124EF926C
:10470000FF920F931F932F933F934F935F936F935A
:104710007F938F939F93AF93BF93CF93EF93FF9329
:1047200009EE10E0F8018081C091EC008F70C79510
:10473000CC27C795C82B108280EFE82EF12CF7010B
:104740008081877F808378940E94C523F80110823E
:10475000F701808188608083CF70F801C083FF916A
:10476000EF91CF91BF91AF919F918F917F916F9179
:104770005F914F913F912F911F910F91FF90EF907B
:104780000F900FBE0F901F901895AAE2B0E0EBECCF
:10479000F3E20C94F72680E093E0FC01019620916F
:1047A000F100208323E088309207B9F70E94C21EEF
:1047B0008091E80083FF38C080910003909101034D
:1047C0009A3090F5E92FF0E0EA51F84D0C94E32689
:1047D000803889F0823841F5809104038F708730EA
:1047E00018F58093E9008091EB0085FB882780F91C
:1047F0001092E90006C08091FD02880F9091FC02A2
:10480000892B9091E800977F9093E8008093F100C6
:104810001092F1008091E8008E7723C0811116C0BC
:1048200080910203813011F18091E80083FF0AC07A
:104830008091E800877F8093E8008091EB008062A0
:104840008093EB00AA96E4E00C941327823061F782
:1048500080910203811589F01092E9008091E800AF
:10486000877F8093E8000E94DB21DECF81E09330D8
:1048700009F080E08093FD02EFCF809104038F70F8
:104880002FEF280F263080F68093E9002091EB006F
:1048900020FFE2CF933031F48091EB00806280936F
:1048A000EB00DACF9091EB0090619093EB0021E068
:1048B00030E0A90102C0440F551F8A95E2F74093EA
:1048C000EA001092EA008091EB008860E8CF811145
:1048D000ABCF109102031F778091E3008078812B8A
:1048E0008093E3008091E800877F8093E8000E9436
:1048F000DB218091E80080FFFCCF8091E30080689D
:104900008093E30083E0111101C082E08093FF02F5
:104910008BCF8058823008F087CF8091020390912E
:1049200003038C3D53E0950799F583E08A838AE27F
:1049300089834FB7F894DE01139620E03EE051E200
:10494000E32FF0E050935700849120FF03C082953D
:104950008F703F5F8F708A30C8F0895C90E08D93D4
:104960009D932F5F243161F74FBF8091E800877FCF
:104970008093E8006AE270E0CE0101960E94F22086
:104980008091E8008B778093E8004ECF805DE6CF82
:104990006091040370910503AE014F5F5F4F0E9469
:1049A0002C208C01892B09F43FCF8091E800877F70
:1049B0008093E800B80189819A810E944C21E0CF60
:1049C000803809F031CF8091E800877F8093E8003C
:1049D0008091FB028093F1001DCF811125CF909132
:1049E0000203923008F020CF8091E800877F809307
:1049F000E8009093FB020E94DB218091FB0281156D
:104A000031F084E08093FF020E949E1E0DCF8091C2
:104A1000E30087FDF6CF81E0F5CF0895CF93809135
:104A2000FF02811599F08091E900C091EC008F7030
:104A3000C795CC27C795C82B1092E9008091E80054
:104A400083FD0E94C523CF70C093E900CF910895E4
:104A5000FC018091FF02843039F584899589A6890B
:104A6000B789892B8A2B8B2BF9F081818F708093EA
:104A7000E9009091F3008091F200892B11F480E01D
:104A800008959091E8008091E8008E778093E80087
:104A900095FDF5CF0E94FA21811107C09091E800A1
:104AA0009E779093E800089582E00895FC0180913C
:104AB000FF02843099F484899589A689B789892B66
:104AC0008A2B8B2B59F081818F708093E900809124
:104AD000E80080FF03C0CF010E9428250895FC0153
:104AE0008091FF028430D9F484899589A689B78999
:104AF000892B8A2B8B2B99F086818F708093E9000C
:104B00008091E80082FF0BC09091F3008091F20049
:104B1000892B41F48091E8008B778093E80080E056
:104B200090E008959091F3008091F2000895FC01C7
:104B30008091FF02843019F08FEF9FEF08958489F0
:104B40009589A689B789892B8A2B8B2BA9F3868116
:104B50008F708093E9008091E80082FFEDCF909103
:104B6000F3008091F200892B79F08091F10090E0C0
:104B70003091F3002091F200232B29F42091E800DA
:104B80002B772093E80008958FEF9FEFF1CFA8E0F7
:104B9000B0E0EDECF5E20C94F7268C018091FF0279
:104BA000843059F5F80184899589A689B789892BBC
:104BB0008A2B8B2B11F183858F708093E90088E01D
:104BC000E7E5F1E0DE01119601900D928A95E1F79B
:104BD00040E050E068E070E0CE0101960E94A22023
:104BE00040E050E062E070E0C80142960E94A220DE
:104BF0008091E8008E778093E8002896E4E00C949A
:104C0000132708950895CF93DF93EC018091E80076
:104C100083FF13C028818091040390910503281716
:104C2000190659F480910103823209F484C040F4DA
:104C3000803209F44DC08132B1F0DF91CF910895F7
:104C40008332D9F7809100038132B9F78091E8006F
:104C5000877F8093E8000E94DB2160910203CE01F0
:104C60000E940226EACF80910003813A31F78091B9
:104C7000E800877F8093E8008091E80080FFFCCF08
:104C80008C899D89AE89BF898093F100492F5A2F65
:104C90006B2F77274093F100AD016627772740936C
:104CA000F1008B2F9927AA27BB278093F100888DCD
:104CB0008093F100898D8093F1008A8D8093F100BB
:104CC0008091E8008E778093E8000E94DB21B5CFC9
:104CD00080910003813209F0B0CF8091E800877F96
:104CE0008093E8008091E80082FF20C03091F100BD
:104CF0002091F1009091F1008091F1003C8B2D8B7F
:104D00009E8B8F8B8091F100888F8091F100898F2D
:104D10008091F1008A8F8091E8008B778093E80082
:104D20000E94DB21CE010E94012687CF8091FF02E5
:104D30008111D8CF82CF80910003813209F07DCFDD
:104D40008091E800877F8093E8000E94DB218091BA
:104D5000020390910303998B888BCE010E94012658
:104D60006CCF0E942B221092FF020895E8EDF0E034
:104D70008081806180838AE18A95F1F700C080910B
:104D8000D90081700895992778E0880F991F9617A8
:104D900008F0961B881F7A95C9F78095089597FBB0
:104DA000072E16F4009407D077FD09D00E94202723
:104DB00007FC05D03EF4909581959F4F089570951E
:104DC00061957F4F0895EE0FFF1F0590F491E02D40
:104DD00009942F923F924F925F926F927F928F929F
:104DE0009F92AF92BF92CF92DF92EF92FF920F937A
:104DF0001F93CF93DF93CDB7DEB7CA1BDB0B0FB684
:104E0000F894DEBF0FBECDBF09942A883988488840
:104E10005F846E847D848C849B84AA84B984C884D6
:104E2000DF80EE80FD800C811B81AA81B981CE0FCD
:104E3000D11D0FB6F894DEBF0FBECDBFED010895B2
:104E4000AA1BBB1B51E107C0AA1FBB1FA617B707B0
:104E500010F0A61BB70B881F991F5A95A9F78095CC
:104E60009095BC01CD010895FB01DC0104C08D913A
:104E70000190801921F441505040C8F7881B990BCC
:104E80000895FB01DC0102C001900D924150504099
:104E9000D8F70895F999FECF92BD81BDF89A992768
:104EA00080B50895A8E1B0E042E050E00C948E2770
:104EB000DC01A40FB51F4150504048F0CB01840FD6
:104EC000951F2E910E94692741505040D0F70895B8
:104ED000262FF999FECF92BD81BDF89A019700B4B3
:104EE000021639F01FBA20BD0FB6F894FA9AF99A53
:104EF0000FBE08950396272F0E9469270E946827F6
:104F0000252F0E946927242F0C9469270196272FAB
:104F10000E9469270C946827DC01CB01FC01F999F8
:104F2000FECF06C0F2BDE1BDF89A319600B40D92F5
:104F300041505040B8F70895F894FFCFA404A4045A
:104F4000E804E8044C056905D304D3046E05EA05BA
:104F5000FB05FB05B7152816BF1589158D15C3155B
:104F60009115C715D3159D152116A115D715A51592
:104F7000DB150016A915DF150716AF15E515ED159C
:104F80009515CB159915CF15B315E915F71510160D
:104F90001F168315BB152F16CE16D416D716DD1681
:104FA000F216F216F216F216F216F216F216F216C1
:104FB000E016E516E916EF16001706170A17271967
:104FC0002D1916192119331939193F19E8230E24FF
:104FD00014240E241424672489241424E024ED24AA
:104FE00060028002F4F5F6F73133C6343501000073
:104FF00000010000000000000003010000000404A4
:10500000000000000000280850011E0A14010000E2
:105010000100028410000001051000000183080057
:10502000000100000000000000000000005E1B5AAC
:105030001E531E4C1E451EA120000000000200E26F
:1050400000E900EA00B500B600B700CD008301CC4E
:10505000008A0192019401210223022402250226E2
:105060000227022A02B300B4006F0070009F01CB38
:10507000019F02A002E200E900EA00B500B600B715
:1050800000CD008301CC008A01920194012102230A
:105090000224022502260227022A02B300B4006F6E
:1050A0000070009F01CB019F02A002F4F5F6F731DA
:0450B0003300A40223
:00000001FF
